{
  "contractName": "CRC721NatureAutoId",
  "abi": [
    {
      "inputs": [
        {
          "internalType": "string",
          "name": "name_",
          "type": "string"
        },
        {
          "internalType": "string",
          "name": "symbol_",
          "type": "string"
        },
        {
          "internalType": "string",
          "name": "uri_",
          "type": "string"
        }
      ],
      "stateMutability": "nonpayable",
      "type": "constructor"
    },
    {
      "anonymous": false,
      "inputs": [
        {
          "indexed": true,
          "internalType": "address",
          "name": "owner",
          "type": "address"
        },
        {
          "indexed": true,
          "internalType": "address",
          "name": "approved",
          "type": "address"
        },
        {
          "indexed": true,
          "internalType": "uint256",
          "name": "tokenId",
          "type": "uint256"
        }
      ],
      "name": "Approval",
      "type": "event"
    },
    {
      "anonymous": false,
      "inputs": [
        {
          "indexed": true,
          "internalType": "address",
          "name": "owner",
          "type": "address"
        },
        {
          "indexed": true,
          "internalType": "address",
          "name": "operator",
          "type": "address"
        },
        {
          "indexed": false,
          "internalType": "bool",
          "name": "approved",
          "type": "bool"
        }
      ],
      "name": "ApprovalForAll",
      "type": "event"
    },
    {
      "anonymous": false,
      "inputs": [
        {
          "indexed": true,
          "internalType": "bytes32",
          "name": "role",
          "type": "bytes32"
        },
        {
          "indexed": true,
          "internalType": "bytes32",
          "name": "previousAdminRole",
          "type": "bytes32"
        },
        {
          "indexed": true,
          "internalType": "bytes32",
          "name": "newAdminRole",
          "type": "bytes32"
        }
      ],
      "name": "RoleAdminChanged",
      "type": "event"
    },
    {
      "anonymous": false,
      "inputs": [
        {
          "indexed": true,
          "internalType": "bytes32",
          "name": "role",
          "type": "bytes32"
        },
        {
          "indexed": true,
          "internalType": "address",
          "name": "account",
          "type": "address"
        },
        {
          "indexed": true,
          "internalType": "address",
          "name": "sender",
          "type": "address"
        }
      ],
      "name": "RoleGranted",
      "type": "event"
    },
    {
      "anonymous": false,
      "inputs": [
        {
          "indexed": true,
          "internalType": "bytes32",
          "name": "role",
          "type": "bytes32"
        },
        {
          "indexed": true,
          "internalType": "address",
          "name": "account",
          "type": "address"
        },
        {
          "indexed": true,
          "internalType": "address",
          "name": "sender",
          "type": "address"
        }
      ],
      "name": "RoleRevoked",
      "type": "event"
    },
    {
      "anonymous": false,
      "inputs": [
        {
          "indexed": true,
          "internalType": "address",
          "name": "from",
          "type": "address"
        },
        {
          "indexed": true,
          "internalType": "address",
          "name": "to",
          "type": "address"
        },
        {
          "indexed": true,
          "internalType": "uint256",
          "name": "tokenId",
          "type": "uint256"
        }
      ],
      "name": "Transfer",
      "type": "event"
    },
    {
      "inputs": [],
      "name": "DEFAULT_ADMIN_ROLE",
      "outputs": [
        {
          "internalType": "bytes32",
          "name": "",
          "type": "bytes32"
        }
      ],
      "stateMutability": "view",
      "type": "function"
    },
    {
      "inputs": [],
      "name": "MINTER_ROLE",
      "outputs": [
        {
          "internalType": "bytes32",
          "name": "",
          "type": "bytes32"
        }
      ],
      "stateMutability": "view",
      "type": "function"
    },
    {
      "inputs": [],
      "name": "PAUSER_ROLE",
      "outputs": [
        {
          "internalType": "bytes32",
          "name": "",
          "type": "bytes32"
        }
      ],
      "stateMutability": "view",
      "type": "function"
    },
    {
      "inputs": [
        {
          "internalType": "address",
          "name": "to",
          "type": "address"
        },
        {
          "internalType": "uint256",
          "name": "tokenId",
          "type": "uint256"
        }
      ],
      "name": "approve",
      "outputs": [],
      "stateMutability": "nonpayable",
      "type": "function"
    },
    {
      "inputs": [
        {
          "internalType": "address",
          "name": "owner",
          "type": "address"
        }
      ],
      "name": "balanceOf",
      "outputs": [
        {
          "internalType": "uint256",
          "name": "",
          "type": "uint256"
        }
      ],
      "stateMutability": "view",
      "type": "function"
    },
    {
      "inputs": [
        {
          "internalType": "uint256",
          "name": "tokenId",
          "type": "uint256"
        }
      ],
      "name": "getApproved",
      "outputs": [
        {
          "internalType": "address",
          "name": "",
          "type": "address"
        }
      ],
      "stateMutability": "view",
      "type": "function"
    },
    {
      "inputs": [
        {
          "internalType": "bytes32",
          "name": "role",
          "type": "bytes32"
        }
      ],
      "name": "getRoleAdmin",
      "outputs": [
        {
          "internalType": "bytes32",
          "name": "",
          "type": "bytes32"
        }
      ],
      "stateMutability": "view",
      "type": "function"
    },
    {
      "inputs": [
        {
          "internalType": "bytes32",
          "name": "role",
          "type": "bytes32"
        },
        {
          "internalType": "uint256",
          "name": "index",
          "type": "uint256"
        }
      ],
      "name": "getRoleMember",
      "outputs": [
        {
          "internalType": "address",
          "name": "",
          "type": "address"
        }
      ],
      "stateMutability": "view",
      "type": "function"
    },
    {
      "inputs": [
        {
          "internalType": "bytes32",
          "name": "role",
          "type": "bytes32"
        }
      ],
      "name": "getRoleMemberCount",
      "outputs": [
        {
          "internalType": "uint256",
          "name": "",
          "type": "uint256"
        }
      ],
      "stateMutability": "view",
      "type": "function"
    },
    {
      "inputs": [
        {
          "internalType": "bytes32",
          "name": "role",
          "type": "bytes32"
        },
        {
          "internalType": "address",
          "name": "account",
          "type": "address"
        }
      ],
      "name": "grantRole",
      "outputs": [],
      "stateMutability": "nonpayable",
      "type": "function"
    },
    {
      "inputs": [
        {
          "internalType": "bytes32",
          "name": "role",
          "type": "bytes32"
        },
        {
          "internalType": "address",
          "name": "account",
          "type": "address"
        }
      ],
      "name": "hasRole",
      "outputs": [
        {
          "internalType": "bool",
          "name": "",
          "type": "bool"
        }
      ],
      "stateMutability": "view",
      "type": "function"
    },
    {
      "inputs": [
        {
          "internalType": "address",
          "name": "owner",
          "type": "address"
        },
        {
          "internalType": "address",
          "name": "operator",
          "type": "address"
        }
      ],
      "name": "isApprovedForAll",
      "outputs": [
        {
          "internalType": "bool",
          "name": "",
          "type": "bool"
        }
      ],
      "stateMutability": "view",
      "type": "function"
    },
    {
      "inputs": [],
      "name": "name",
      "outputs": [
        {
          "internalType": "string",
          "name": "",
          "type": "string"
        }
      ],
      "stateMutability": "view",
      "type": "function"
    },
    {
      "inputs": [
        {
          "internalType": "uint256",
          "name": "tokenId",
          "type": "uint256"
        }
      ],
      "name": "ownerOf",
      "outputs": [
        {
          "internalType": "address",
          "name": "",
          "type": "address"
        }
      ],
      "stateMutability": "view",
      "type": "function"
    },
    {
      "inputs": [
        {
          "internalType": "bytes32",
          "name": "role",
          "type": "bytes32"
        },
        {
          "internalType": "address",
          "name": "account",
          "type": "address"
        }
      ],
      "name": "renounceRole",
      "outputs": [],
      "stateMutability": "nonpayable",
      "type": "function"
    },
    {
      "inputs": [
        {
          "internalType": "bytes32",
          "name": "role",
          "type": "bytes32"
        },
        {
          "internalType": "address",
          "name": "account",
          "type": "address"
        }
      ],
      "name": "revokeRole",
      "outputs": [],
      "stateMutability": "nonpayable",
      "type": "function"
    },
    {
      "inputs": [
        {
          "internalType": "address",
          "name": "from",
          "type": "address"
        },
        {
          "internalType": "address",
          "name": "to",
          "type": "address"
        },
        {
          "internalType": "uint256",
          "name": "tokenId",
          "type": "uint256"
        }
      ],
      "name": "safeTransferFrom",
      "outputs": [],
      "stateMutability": "nonpayable",
      "type": "function"
    },
    {
      "inputs": [
        {
          "internalType": "address",
          "name": "from",
          "type": "address"
        },
        {
          "internalType": "address",
          "name": "to",
          "type": "address"
        },
        {
          "internalType": "uint256",
          "name": "tokenId",
          "type": "uint256"
        },
        {
          "internalType": "bytes",
          "name": "_data",
          "type": "bytes"
        }
      ],
      "name": "safeTransferFrom",
      "outputs": [],
      "stateMutability": "nonpayable",
      "type": "function"
    },
    {
      "inputs": [
        {
          "internalType": "address",
          "name": "operator",
          "type": "address"
        },
        {
          "internalType": "bool",
          "name": "approved",
          "type": "bool"
        }
      ],
      "name": "setApprovalForAll",
      "outputs": [],
      "stateMutability": "nonpayable",
      "type": "function"
    },
    {
      "inputs": [],
      "name": "symbol",
      "outputs": [
        {
          "internalType": "string",
          "name": "",
          "type": "string"
        }
      ],
      "stateMutability": "view",
      "type": "function"
    },
    {
      "inputs": [
        {
          "internalType": "uint256",
          "name": "index",
          "type": "uint256"
        }
      ],
      "name": "tokenByIndex",
      "outputs": [
        {
          "internalType": "uint256",
          "name": "",
          "type": "uint256"
        }
      ],
      "stateMutability": "view",
      "type": "function"
    },
    {
      "inputs": [
        {
          "internalType": "uint256",
          "name": "",
          "type": "uint256"
        }
      ],
      "name": "tokenFeatureCode",
      "outputs": [
        {
          "internalType": "uint256",
          "name": "",
          "type": "uint256"
        }
      ],
      "stateMutability": "view",
      "type": "function"
    },
    {
      "inputs": [
        {
          "internalType": "address",
          "name": "owner",
          "type": "address"
        },
        {
          "internalType": "uint256",
          "name": "index",
          "type": "uint256"
        }
      ],
      "name": "tokenOfOwnerByIndex",
      "outputs": [
        {
          "internalType": "uint256",
          "name": "",
          "type": "uint256"
        }
      ],
      "stateMutability": "view",
      "type": "function"
    },
    {
      "inputs": [
        {
          "internalType": "uint256",
          "name": "offset",
          "type": "uint256"
        },
        {
          "internalType": "uint256",
          "name": "limit",
          "type": "uint256"
        }
      ],
      "name": "tokens",
      "outputs": [
        {
          "internalType": "uint256",
          "name": "total",
          "type": "uint256"
        },
        {
          "internalType": "uint256[]",
          "name": "tokenIds",
          "type": "uint256[]"
        }
      ],
      "stateMutability": "view",
      "type": "function"
    },
    {
      "inputs": [
        {
          "internalType": "address",
          "name": "owner",
          "type": "address"
        },
        {
          "internalType": "uint256",
          "name": "offset",
          "type": "uint256"
        },
        {
          "internalType": "uint256",
          "name": "limit",
          "type": "uint256"
        }
      ],
      "name": "tokensOf",
      "outputs": [
        {
          "internalType": "uint256",
          "name": "total",
          "type": "uint256"
        },
        {
          "internalType": "uint256[]",
          "name": "tokenIds",
          "type": "uint256[]"
        }
      ],
      "stateMutability": "view",
      "type": "function"
    },
    {
      "inputs": [],
      "name": "totalSupply",
      "outputs": [
        {
          "internalType": "uint256",
          "name": "",
          "type": "uint256"
        }
      ],
      "stateMutability": "view",
      "type": "function"
    },
    {
      "inputs": [
        {
          "internalType": "address",
          "name": "from",
          "type": "address"
        },
        {
          "internalType": "address",
          "name": "to",
          "type": "address"
        },
        {
          "internalType": "uint256",
          "name": "tokenId",
          "type": "uint256"
        }
      ],
      "name": "transferFrom",
      "outputs": [],
      "stateMutability": "nonpayable",
      "type": "function"
    },
    {
      "inputs": [
        {
          "internalType": "address",
          "name": "minter_",
          "type": "address"
        }
      ],
      "name": "addMinter",
      "outputs": [],
      "stateMutability": "nonpayable",
      "type": "function"
    },
    {
      "inputs": [
        {
          "internalType": "address",
          "name": "minter_",
          "type": "address"
        }
      ],
      "name": "removeMinter",
      "outputs": [],
      "stateMutability": "nonpayable",
      "type": "function"
    },
    {
      "inputs": [
        {
          "internalType": "string",
          "name": "newuri",
          "type": "string"
        }
      ],
      "name": "setURI",
      "outputs": [],
      "stateMutability": "nonpayable",
      "type": "function"
    },
    {
      "inputs": [
        {
          "internalType": "uint256",
          "name": "tokenId",
          "type": "uint256"
        }
      ],
      "name": "tokenURI",
      "outputs": [
        {
          "internalType": "string",
          "name": "",
          "type": "string"
        }
      ],
      "stateMutability": "view",
      "type": "function"
    },
    {
      "inputs": [
        {
          "internalType": "address",
          "name": "to",
          "type": "address"
        }
      ],
      "name": "mint",
      "outputs": [],
      "stateMutability": "nonpayable",
      "type": "function"
    },
    {
      "inputs": [
        {
          "internalType": "address",
          "name": "to",
          "type": "address"
        },
        {
          "internalType": "uint256",
          "name": "tokenId",
          "type": "uint256"
        }
      ],
      "name": "mintTokenID",
      "outputs": [],
      "stateMutability": "nonpayable",
      "type": "function"
    },
    {
      "inputs": [
        {
          "internalType": "address",
          "name": "to",
          "type": "address"
        },
        {
          "internalType": "uint256",
          "name": "amount",
          "type": "uint256"
        }
      ],
      "name": "mintBatch",
      "outputs": [],
      "stateMutability": "nonpayable",
      "type": "function"
    },
    {
      "inputs": [
        {
          "internalType": "address[]",
          "name": "_initialOwners",
          "type": "address[]"
        }
      ],
      "name": "batchAddItemByAddress",
      "outputs": [],
      "stateMutability": "nonpayable",
      "type": "function"
    },
    {
      "inputs": [
        {
          "internalType": "uint256",
          "name": "tokenId",
          "type": "uint256"
        },
        {
          "internalType": "uint256",
          "name": "featureCode",
          "type": "uint256"
        }
      ],
      "name": "setTokenFeatureCode",
      "outputs": [],
      "stateMutability": "nonpayable",
      "type": "function"
    },
    {
      "inputs": [
        {
          "internalType": "bytes4",
          "name": "interfaceId",
          "type": "bytes4"
        }
      ],
      "name": "supportsInterface",
      "outputs": [
        {
          "internalType": "bool",
          "name": "",
          "type": "bool"
        }
      ],
      "stateMutability": "view",
      "type": "function"
    }
  ],
  "bytecode": "0x60806040523480156200001157600080fd5b5060405162005c6638038062005c66833981810160405281019062000037919062000934565b8282816002908051906020019062000051929190620007cf565b5080600390805190602001906200006a929190620007cf565b5050506200007d6200045c60201b60201c565b620000885762000394565b6000600167ffffffffffffffff811115620000cc577f4e487b7100000000000000000000000000000000000000000000000000000000600052604160045260246000fd5b604051908082528060200260200182016040528015620000fb5781602001602082028036833780820191505090505b5090506000816000815181106200013b577f4e487b7100000000000000000000000000000000000000000000000000000000600052603260045260246000fd5b602002602001019073ffffffffffffffffffffffffffffffffffffffff16908173ffffffffffffffffffffffffffffffffffffffff168152505073088800000000000000000000000000000000000173ffffffffffffffffffffffffffffffffffffffff166310128d3e826040518263ffffffff1660e01b8152600401620001c4919062000b6f565b600060405180830381600087803b158015620001df57600080fd5b505af1158015620001f4573d6000803e3d6000fd5b5050505073088800000000000000000000000000000000000073ffffffffffffffffffffffffffffffffffffffff1663c55b6bb73060006040518363ffffffff1660e01b81526004016200024a92919062000b42565b600060405180830381600087803b1580156200026557600080fd5b505af11580156200027a573d6000803e3d6000fd5b50505050600073ffffffffffffffffffffffffffffffffffffffff1673088800000000000000000000000000000000000073ffffffffffffffffffffffffffffffffffffffff166364efb22b306040518263ffffffff1660e01b8152600401620002e5919062000b25565b60206040518083038186803b158015620002fe57600080fd5b505afa15801562000313573d6000803e3d6000fd5b505050506040513d601f19601f8201168201806040525081019062000339919062000908565b73ffffffffffffffffffffffffffffffffffffffff161462000392576040517f08c379a0000000000000000000000000000000000000000000000000000000008152600401620003899062000b93565b60405180910390fd5b505b620003b86000801b620003ac620004a460201b60201c565b620004ac60201b60201c565b620003f97f9f2df0fed2c77648de5860a4cc508cd0818c85b8b8a1ab4ceeef8d981c8956a6620003ed620004a460201b60201c565b620004ac60201b60201c565b6200043a7f65d7a28e3265b37a6474929f336521b332c1681b933f6cb9f3376673440d862a6200042e620004a460201b60201c565b620004ac60201b60201c565b6200044b81620004c260201b60201c565b6001600e8190555050505062000da0565b60006200049e731820a4b7618bde71dce8cdc73aab6c95905fad2473ffffffffffffffffffffffffffffffffffffffff166200054460201b620019671760201c565b15905090565b600033905090565b620004be82826200055760201b60201c565b5050565b620004e66000801b620004da620004a460201b60201c565b6200059f60201b60201c565b62000528576040517f08c379a00000000000000000000000000000000000000000000000000000000081526004016200051f9062000bb5565b60405180910390fd5b80600c908051906020019062000540929190620007cf565b5050565b600080823b905060008111915050919050565b6200056e82826200060960201b6200197a1760201c565b6200059a8160016000858152602001908152602001600020620006fa60201b62001a5a1790919060201c565b505050565b600080600084815260200190815260200160002060000160008373ffffffffffffffffffffffffffffffffffffffff1673ffffffffffffffffffffffffffffffffffffffff16815260200190815260200160002060009054906101000a900460ff16905092915050565b6200061b82826200059f60201b60201c565b620006f657600160008084815260200190815260200160002060000160008373ffffffffffffffffffffffffffffffffffffffff1673ffffffffffffffffffffffffffffffffffffffff16815260200190815260200160002060006101000a81548160ff0219169083151502179055506200069b620004a460201b60201c565b73ffffffffffffffffffffffffffffffffffffffff168173ffffffffffffffffffffffffffffffffffffffff16837f2f8788117e7eff1d82e926ec794901d17c78024a50270940304540a733656f0d60405160405180910390a45b5050565b60006200072a836000018373ffffffffffffffffffffffffffffffffffffffff1660001b6200073260201b60201c565b905092915050565b6000620007468383620007ac60201b60201c565b620007a1578260000182908060018154018082558091505060019003906000526020600020016000909190919091505582600001805490508360010160008481526020019081526020016000208190555060019050620007a6565b600090505b92915050565b600080836001016000848152602001908152602001600020541415905092915050565b828054620007dd9062000cf2565b90600052602060002090601f0160209004810192826200080157600085556200084d565b82601f106200081c57805160ff19168380011785556200084d565b828001600101855582156200084d579182015b828111156200084c5782518255916020019190600101906200082f565b5b5090506200085c919062000860565b5090565b5b808211156200087b57600081600090555060010162000861565b5090565b600062000896620008908462000c0b565b62000bd7565b905082815260208101848484011115620008af57600080fd5b620008bc84828562000cbc565b509392505050565b600081519050620008d58162000d86565b92915050565b600082601f830112620008ed57600080fd5b8151620008ff8482602086016200087f565b91505092915050565b6000602082840312156200091b57600080fd5b60006200092b84828501620008c4565b91505092915050565b6000806000606084860312156200094a57600080fd5b600084015167ffffffffffffffff8111156200096557600080fd5b6200097386828701620008db565b935050602084015167ffffffffffffffff8111156200099157600080fd5b6200099f86828701620008db565b925050604084015167ffffffffffffffff811115620009bd57600080fd5b620009cb86828701620008db565b9150509250925092565b6000620009e38383620009ef565b60208301905092915050565b620009fa8162000c88565b82525050565b62000a0b8162000c88565b82525050565b600062000a1e8262000c4e565b62000a2a818562000c66565b935062000a378362000c3e565b8060005b8381101562000a6e57815162000a528882620009d5565b975062000a5f8362000c59565b92505060018101905062000a3b565b5085935050505092915050565b600062000a8a60158362000c77565b91507f726571756972652061646d696e203d3d206e756c6c00000000000000000000006000830152602082019050919050565b600062000acc60338362000c77565b91507f4352433732314e61747572654175746f49643a206d757374206861766520616460008301527f6d696e20726f6c6520746f2073657420555249000000000000000000000000006020830152604082019050919050565b600060208201905062000b3c600083018462000a00565b92915050565b600060408201905062000b59600083018562000a00565b62000b68602083018462000a00565b9392505050565b6000602082019050818103600083015262000b8b818462000a11565b905092915050565b6000602082019050818103600083015262000bae8162000a7b565b9050919050565b6000602082019050818103600083015262000bd08162000abd565b9050919050565b6000604051905081810181811067ffffffffffffffff8211171562000c015762000c0062000d57565b5b8060405250919050565b600067ffffffffffffffff82111562000c295762000c2862000d57565b5b601f19601f8301169050602081019050919050565b6000819050602082019050919050565b600081519050919050565b6000602082019050919050565b600082825260208201905092915050565b600082825260208201905092915050565b600062000c958262000c9c565b9050919050565b600073ffffffffffffffffffffffffffffffffffffffff82169050919050565b60005b8381101562000cdc57808201518184015260208101905062000cbf565b8381111562000cec576000848401525b50505050565b6000600282049050600182168062000d0b57607f821691505b6020821081141562000d225762000d2162000d28565b5b50919050565b7f4e487b7100000000000000000000000000000000000000000000000000000000600052602260045260246000fd5b7f4e487b7100000000000000000000000000000000000000000000000000000000600052604160045260246000fd5b62000d918162000c88565b811462000d9d57600080fd5b50565b614eb68062000db06000396000f3fe608060405234801561001057600080fd5b50600436106102275760003560e01c806354777f4111610130578063a217fddf116100b8578063d53913931161007c578063d5391393146106ba578063d547741f146106d8578063e63ab1e9146106f4578063e985e9c514610712578063f65a60cb1461074257610227565b8063a217fddf14610604578063a22cb46514610622578063b88d4fde1461063e578063c87b56dd1461065a578063ca15c8731461068a57610227565b80638b4864d6116100ff5780638b4864d6146105395780639010d07c1461056a57806391d148541461059a57806395d89b41146105ca578063983b2d56146105e857610227565b806354777f41146104a15780636352211e146104bd5780636a627842146104ed57806370a082311461050957610227565b8063248a9ca3116101b35780633092afd5116101825780633092afd51461040157806336568abe1461041d57806342842e0e1461043957806343f21241146104555780634f6ccce71461047157610227565b8063248a9ca314610369578063248b71fc146103995780632f2ff15d146103b55780632f745c59146103d157610227565b8063095ea7b3116101fa578063095ea7b3146102c657806318160ddd146102e25780631d61c7e11461030057806323185dc91461031c57806323b872dd1461034d57610227565b806301ffc9a71461022c57806302fe53051461025c57806306fdde0314610278578063081812fc14610296575b600080fd5b61024660048036038101906102419190613a93565b610772565b6040516102539190614645565b60405180910390f35b61027660048036038101906102719190613ae5565b610794565b005b610280610801565b60405161028d919061467b565b60405180910390f35b6102b060048036038101906102ab9190613b26565b610893565b6040516102bd91906145de565b60405180910390f35b6102e060048036038101906102db9190613922565b610918565b005b6102ea610a30565b6040516102f7919061493d565b60405180910390f35b61031a60048036038101906103159190613b4f565b610a3d565b005b6103366004803603810190610331919061395e565b610b1f565b604051610344929190614958565b60405180910390f35b6103676004803603810190610362919061381c565b610ce0565b005b610383600480360381019061037e91906139f2565b610d40565b6040516103909190614660565b60405180910390f35b6103b360048036038101906103ae9190613922565b610d5f565b005b6103cf60048036038101906103ca9190613a1b565b610e1f565b005b6103eb60048036038101906103e69190613922565b610e48565b6040516103f8919061493d565b60405180910390f35b61041b600480360381019061041691906137b7565b610eed565b005b61043760048036038101906104329190613a1b565b610f1a565b005b610453600480360381019061044e919061381c565b610f9d565b005b61046f600480360381019061046a9190613922565b610fbd565b005b61048b60048036038101906104869190613b26565b61103b565b604051610498919061493d565b60405180910390f35b6104bb60048036038101906104b691906139ad565b6110d2565b005b6104d760048036038101906104d29190613b26565b6111e8565b6040516104e491906145de565b60405180910390f35b610507600480360381019061050291906137b7565b61129a565b005b610523600480360381019061051e91906137b7565b611332565b604051610530919061493d565b60405180910390f35b610553600480360381019061054e9190613b4f565b6113ea565b604051610561929190614958565b60405180910390f35b610584600480360381019061057f9190613a57565b6115a8565b60405161059191906145de565b60405180910390f35b6105b460048036038101906105af9190613a1b565b6115d7565b6040516105c19190614645565b60405180910390f35b6105d2611641565b6040516105df919061467b565b60405180910390f35b61060260048036038101906105fd91906137b7565b6116d3565b005b61060c611700565b6040516106199190614660565b60405180910390f35b61063c600480360381019061063791906138e6565b611707565b005b6106586004803603810190610653919061386b565b61171d565b005b610674600480360381019061066f9190613b26565b61177f565b604051610681919061467b565b60405180910390f35b6106a4600480360381019061069f91906139f2565b611826565b6040516106b1919061493d565b60405180910390f35b6106c261184a565b6040516106cf9190614660565b60405180910390f35b6106f260048036038101906106ed9190613a1b565b61186e565b005b6106fc611897565b6040516107099190614660565b60405180910390f35b61072c600480360381019061072791906137e0565b6118bb565b6040516107399190614645565b60405180910390f35b61075c60048036038101906107579190613b26565b61194f565b604051610769919061493d565b60405180910390f35b600061077d82611a8a565b8061078d575061078c82611b04565b5b9050919050565b6107a86000801b6107a3611b7e565b6115d7565b6107e7576040517f08c379a00000000000000000000000000000000000000000000000000000000081526004016107de906147fd565b60405180910390fd5b80600c90805190602001906107fd92919061357c565b5050565b60606002805461081090614c94565b80601f016020809104026020016040519081016040528092919081815260200182805461083c90614c94565b80156108895780601f1061085e57610100808354040283529160200191610889565b820191906000526020600020905b81548152906001019060200180831161086c57829003601f168201915b5050505050905090565b600061089e82611b86565b6108dd576040517f08c379a00000000000000000000000000000000000000000000000000000000081526004016108d49061485d565b60405180910390fd5b6006600083815260200190815260200160002060009054906101000a900473ffffffffffffffffffffffffffffffffffffffff169050919050565b6000610923826111e8565b90508073ffffffffffffffffffffffffffffffffffffffff168373ffffffffffffffffffffffffffffffffffffffff161415610994576040517f08c379a000000000000000000000000000000000000000000000000000000000815260040161098b906148bd565b60405180910390fd5b8073ffffffffffffffffffffffffffffffffffffffff166109b3611b7e565b73ffffffffffffffffffffffffffffffffffffffff1614806109e257506109e1816109dc611b7e565b6118bb565b5b610a21576040517f08c379a0000000000000000000000000000000000000000000000000000000008152600401610a189061479d565b60405180910390fd5b610a2b8383611bf2565b505050565b6000600a80549050905090565b610a6e7f9f2df0fed2c77648de5860a4cc508cd0818c85b8b8a1ab4ceeef8d981c8956a6610a69611b7e565b6115d7565b610aad576040517f08c379a0000000000000000000000000000000000000000000000000000000008152600401610aa49061477d565b60405180910390fd5b6000600d60008481526020019081526020016000205414610b03576040517f08c379a0000000000000000000000000000000000000000000000000000000008152600401610afa9061483d565b60405180910390fd5b80600d6000848152602001908152602001600020819055505050565b60006060610b2c85611332565b91506000821480610b3d5750818410155b15610bbc5781600067ffffffffffffffff811115610b84577f4e487b7100000000000000000000000000000000000000000000000000000000600052604160045260246000fd5b604051908082528060200260200182016040528015610bb25781602001602082028036833780820191505090505b5091509150610cd8565b6000610bdc8486610bcd9190614a95565b84611cab90919063ffffffff16565b90508481610bea9190614b76565b67ffffffffffffffff811115610c29577f4e487b7100000000000000000000000000000000000000000000000000000000600052604160045260246000fd5b604051908082528060200260200182016040528015610c575781602001602082028036833780820191505090505b50915060008590505b81811015610cd557610c728782610e48565b838783610c7f9190614b76565b81518110610cb6577f4e487b7100000000000000000000000000000000000000000000000000000000600052603260045260246000fd5b6020026020010181815250508080610ccd90614cc6565b915050610c60565b50505b935093915050565b610cf1610ceb611b7e565b82611cc4565b610d30576040517f08c379a0000000000000000000000000000000000000000000000000000000008152600401610d27906148dd565b60405180910390fd5b610d3b838383611da2565b505050565b6000806000838152602001908152602001600020600101549050919050565b610d907f9f2df0fed2c77648de5860a4cc508cd0818c85b8b8a1ab4ceeef8d981c8956a6610d8b611b7e565b6115d7565b610dcf576040517f08c379a0000000000000000000000000000000000000000000000000000000008152600401610dc69061477d565b60405180910390fd5b6000600e54905060005b82811015610e0757610df6848284610df19190614a95565b611ffe565b80610e0090614cc6565b9050610dd9565b508181610e149190614a95565b600e81905550505050565b610e2882610d40565b610e3981610e34611b7e565b6121cc565b610e438383612269565b505050565b6000610e5383611332565b8210610e94576040517f08c379a0000000000000000000000000000000000000000000000000000000008152600401610e8b906146bd565b60405180910390fd5b600860008473ffffffffffffffffffffffffffffffffffffffff1673ffffffffffffffffffffffffffffffffffffffff168152602001908152602001600020600083815260200190815260200160002054905092915050565b610f177f9f2df0fed2c77648de5860a4cc508cd0818c85b8b8a1ab4ceeef8d981c8956a68261186e565b50565b610f22611b7e565b73ffffffffffffffffffffffffffffffffffffffff168173ffffffffffffffffffffffffffffffffffffffff1614610f8f576040517f08c379a0000000000000000000000000000000000000000000000000000000008152600401610f869061491d565b60405180910390fd5b610f99828261229d565b5050565b610fb88383836040518060200160405280600081525061171d565b505050565b610fee7f9f2df0fed2c77648de5860a4cc508cd0818c85b8b8a1ab4ceeef8d981c8956a6610fe9611b7e565b6115d7565b61102d576040517f08c379a00000000000000000000000000000000000000000000000000000000081526004016110249061477d565b60405180910390fd5b6110378282611ffe565b5050565b6000611045610a30565b8210611086576040517f08c379a000000000000000000000000000000000000000000000000000000000815260040161107d906148fd565b60405180910390fd5b600a82815481106110c0577f4e487b7100000000000000000000000000000000000000000000000000000000600052603260045260246000fd5b90600052602060002001549050919050565b6111037f9f2df0fed2c77648de5860a4cc508cd0818c85b8b8a1ab4ceeef8d981c8956a66110fe611b7e565b6115d7565b611142576040517f08c379a00000000000000000000000000000000000000000000000000000000081526004016111399061477d565b60405180910390fd5b60008282905090506000600e54905060005b828110156111cf576111be858583818110611198577f4e487b7100000000000000000000000000000000000000000000000000000000600052603260045260246000fd5b90506020020160208101906111ad91906137b7565b82846111b99190614a95565b611ffe565b806111c890614cc6565b9050611154565b5081816111dc9190614a95565b600e8190555050505050565b6000806004600084815260200190815260200160002060009054906101000a900473ffffffffffffffffffffffffffffffffffffffff169050600073ffffffffffffffffffffffffffffffffffffffff168173ffffffffffffffffffffffffffffffffffffffff161415611291576040517f08c379a0000000000000000000000000000000000000000000000000000000008152600401611288906147dd565b60405180910390fd5b80915050919050565b6112cb7f9f2df0fed2c77648de5860a4cc508cd0818c85b8b8a1ab4ceeef8d981c8956a66112c6611b7e565b6115d7565b61130a576040517f08c379a00000000000000000000000000000000000000000000000000000000081526004016113019061477d565b60405180910390fd5b6000600e54905061131b8282611ffe565b6001816113289190614a95565b600e819055505050565b60008073ffffffffffffffffffffffffffffffffffffffff168273ffffffffffffffffffffffffffffffffffffffff1614156113a3576040517f08c379a000000000000000000000000000000000000000000000000000000000815260040161139a906147bd565b60405180910390fd5b600560008373ffffffffffffffffffffffffffffffffffffffff1673ffffffffffffffffffffffffffffffffffffffff168152602001908152602001600020549050919050565b600060606113f6610a30565b915060008214806114075750818410155b156114865781600067ffffffffffffffff81111561144e577f4e487b7100000000000000000000000000000000000000000000000000000000600052604160045260246000fd5b60405190808252806020026020018201604052801561147c5781602001602082028036833780820191505090505b50915091506115a1565b60006114a684866114979190614a95565b84611cab90919063ffffffff16565b905084816114b49190614b76565b67ffffffffffffffff8111156114f3577f4e487b7100000000000000000000000000000000000000000000000000000000600052604160045260246000fd5b6040519080825280602002602001820160405280156115215781602001602082028036833780820191505090505b50915060008590505b8181101561159e5761153b8161103b565b8387836115489190614b76565b8151811061157f577f4e487b7100000000000000000000000000000000000000000000000000000000600052603260045260246000fd5b602002602001018181525050808061159690614cc6565b91505061152a565b50505b9250929050565b60006115cf82600160008681526020019081526020016000206122d190919063ffffffff16565b905092915050565b600080600084815260200190815260200160002060000160008373ffffffffffffffffffffffffffffffffffffffff1673ffffffffffffffffffffffffffffffffffffffff16815260200190815260200160002060009054906101000a900460ff16905092915050565b60606003805461165090614c94565b80601f016020809104026020016040519081016040528092919081815260200182805461167c90614c94565b80156116c95780601f1061169e576101008083540402835291602001916116c9565b820191906000526020600020905b8154815290600101906020018083116116ac57829003601f168201915b5050505050905090565b6116fd7f9f2df0fed2c77648de5860a4cc508cd0818c85b8b8a1ab4ceeef8d981c8956a682610e1f565b50565b6000801b81565b611719611712611b7e565b83836122eb565b5050565b61172e611728611b7e565b83611cc4565b61176d576040517f08c379a0000000000000000000000000000000000000000000000000000000008152600401611764906148dd565b60405180910390fd5b61177984848484612458565b50505050565b606061178a82611b86565b6117c9576040517f08c379a00000000000000000000000000000000000000000000000000000000081526004016117c09061489d565b60405180910390fd5b60006117d36124b4565b905060008151116117f3576040518060200160405280600081525061181e565b806117fd84612546565b60405160200161180e929190614575565b6040516020818303038152906040525b915050919050565b6000611843600160008481526020019081526020016000206126f3565b9050919050565b7f9f2df0fed2c77648de5860a4cc508cd0818c85b8b8a1ab4ceeef8d981c8956a681565b61187782610d40565b61188881611883611b7e565b6121cc565b611892838361229d565b505050565b7f65d7a28e3265b37a6474929f336521b332c1681b933f6cb9f3376673440d862a81565b6000600760008473ffffffffffffffffffffffffffffffffffffffff1673ffffffffffffffffffffffffffffffffffffffff16815260200190815260200160002060008373ffffffffffffffffffffffffffffffffffffffff1673ffffffffffffffffffffffffffffffffffffffff16815260200190815260200160002060009054906101000a900460ff16905092915050565b600d6020528060005260406000206000915090505481565b600080823b905060008111915050919050565b61198482826115d7565b611a5657600160008084815260200190815260200160002060000160008373ffffffffffffffffffffffffffffffffffffffff1673ffffffffffffffffffffffffffffffffffffffff16815260200190815260200160002060006101000a81548160ff0219169083151502179055506119fb611b7e565b73ffffffffffffffffffffffffffffffffffffffff168173ffffffffffffffffffffffffffffffffffffffff16837f2f8788117e7eff1d82e926ec794901d17c78024a50270940304540a733656f0d60405160405180910390a45b5050565b6000611a82836000018373ffffffffffffffffffffffffffffffffffffffff1660001b612708565b905092915050565b60007f5a05180f000000000000000000000000000000000000000000000000000000007bffffffffffffffffffffffffffffffffffffffffffffffffffffffff1916827bffffffffffffffffffffffffffffffffffffffffffffffffffffffff19161480611afd5750611afc82612778565b5b9050919050565b60007f780e9d63000000000000000000000000000000000000000000000000000000007bffffffffffffffffffffffffffffffffffffffffffffffffffffffff1916827bffffffffffffffffffffffffffffffffffffffffffffffffffffffff19161480611b775750611b76826127f2565b5b9050919050565b600033905090565b60008073ffffffffffffffffffffffffffffffffffffffff166004600084815260200190815260200160002060009054906101000a900473ffffffffffffffffffffffffffffffffffffffff1673ffffffffffffffffffffffffffffffffffffffff1614159050919050565b816006600083815260200190815260200160002060006101000a81548173ffffffffffffffffffffffffffffffffffffffff021916908373ffffffffffffffffffffffffffffffffffffffff160217905550808273ffffffffffffffffffffffffffffffffffffffff16611c65836111e8565b73ffffffffffffffffffffffffffffffffffffffff167f8c5be1e5ebec7d5bd14f71427d1e84f3dd0314c0f7b2291e5b200ac8c7c3b92560405160405180910390a45050565b6000818310611cba5781611cbc565b825b905092915050565b6000611ccf82611b86565b611d0e576040517f08c379a0000000000000000000000000000000000000000000000000000000008152600401611d059061475d565b60405180910390fd5b6000611d19836111e8565b90508073ffffffffffffffffffffffffffffffffffffffff168473ffffffffffffffffffffffffffffffffffffffff161480611d8857508373ffffffffffffffffffffffffffffffffffffffff16611d7084610893565b73ffffffffffffffffffffffffffffffffffffffff16145b80611d995750611d9881856118bb565b5b91505092915050565b8273ffffffffffffffffffffffffffffffffffffffff16611dc2826111e8565b73ffffffffffffffffffffffffffffffffffffffff1614611e18576040517f08c379a0000000000000000000000000000000000000000000000000000000008152600401611e0f9061487d565b60405180910390fd5b600073ffffffffffffffffffffffffffffffffffffffff168273ffffffffffffffffffffffffffffffffffffffff161415611e88576040517f08c379a0000000000000000000000000000000000000000000000000000000008152600401611e7f9061471d565b60405180910390fd5b611e938383836128d4565b611e9e600082611bf2565b6001600560008573ffffffffffffffffffffffffffffffffffffffff1673ffffffffffffffffffffffffffffffffffffffff1681526020019081526020016000206000828254611eee9190614b76565b925050819055506001600560008473ffffffffffffffffffffffffffffffffffffffff1673ffffffffffffffffffffffffffffffffffffffff1681526020019081526020016000206000828254611f459190614a95565b92505081905550816004600083815260200190815260200160002060006101000a81548173ffffffffffffffffffffffffffffffffffffffff021916908373ffffffffffffffffffffffffffffffffffffffff160217905550808273ffffffffffffffffffffffffffffffffffffffff168473ffffffffffffffffffffffffffffffffffffffff167fddf252ad1be2c89b69c2b068fc378daa952ba7f163c4a11628f55a4df523b3ef60405160405180910390a4505050565b600073ffffffffffffffffffffffffffffffffffffffff168273ffffffffffffffffffffffffffffffffffffffff16141561206e576040517f08c379a00000000000000000000000000000000000000000000000000000000081526004016120659061481d565b60405180910390fd5b61207781611b86565b156120b7576040517f08c379a00000000000000000000000000000000000000000000000000000000081526004016120ae906146fd565b60405180910390fd5b6120c3600083836128d4565b6001600560008473ffffffffffffffffffffffffffffffffffffffff1673ffffffffffffffffffffffffffffffffffffffff16815260200190815260200160002060008282546121139190614a95565b92505081905550816004600083815260200190815260200160002060006101000a81548173ffffffffffffffffffffffffffffffffffffffff021916908373ffffffffffffffffffffffffffffffffffffffff160217905550808273ffffffffffffffffffffffffffffffffffffffff16600073ffffffffffffffffffffffffffffffffffffffff167fddf252ad1be2c89b69c2b068fc378daa952ba7f163c4a11628f55a4df523b3ef60405160405180910390a45050565b6121d682826115d7565b612265576121fb8173ffffffffffffffffffffffffffffffffffffffff1660146129e8565b6122098360001c60206129e8565b60405160200161221a9291906145a4565b6040516020818303038152906040526040517f08c379a000000000000000000000000000000000000000000000000000000000815260040161225c919061467b565b60405180910390fd5b5050565b612273828261197a565b6122988160016000858152602001908152602001600020611a5a90919063ffffffff16565b505050565b6122a78282612ce2565b6122cc8160016000858152602001908152602001600020612dc390919063ffffffff16565b505050565b60006122e08360000183612df3565b60001c905092915050565b8173ffffffffffffffffffffffffffffffffffffffff168373ffffffffffffffffffffffffffffffffffffffff16141561235a576040517f08c379a00000000000000000000000000000000000000000000000000000000081526004016123519061473d565b60405180910390fd5b80600760008573ffffffffffffffffffffffffffffffffffffffff1673ffffffffffffffffffffffffffffffffffffffff16815260200190815260200160002060008473ffffffffffffffffffffffffffffffffffffffff1673ffffffffffffffffffffffffffffffffffffffff16815260200190815260200160002060006101000a81548160ff0219169083151502179055508173ffffffffffffffffffffffffffffffffffffffff168373ffffffffffffffffffffffffffffffffffffffff167f17307eab39ab6107e8899845ad3d59bd9653f200f220920489ca2b5937696c318360405161244b9190614645565b60405180910390a3505050565b612463848484611da2565b61246f84848484612e44565b6124ae576040517f08c379a00000000000000000000000000000000000000000000000000000000081526004016124a5906146dd565b60405180910390fd5b50505050565b6060600c80546124c390614c94565b80601f01602080910402602001604051908101604052809291908181526020018280546124ef90614c94565b801561253c5780601f106125115761010080835404028352916020019161253c565b820191906000526020600020905b81548152906001019060200180831161251f57829003601f168201915b5050505050905090565b6060600082141561258e576040518060400160405280600181526020017f300000000000000000000000000000000000000000000000000000000000000081525090506126ee565b600082905060005b600082146125c05780806125a990614cc6565b915050600a826125b99190614aeb565b9150612596565b60008167ffffffffffffffff811115612602577f4e487b7100000000000000000000000000000000000000000000000000000000600052604160045260246000fd5b6040519080825280601f01601f1916602001820160405280156126345781602001600182028036833780820191505090505b5090505b600085146126e75760018261264d9190614b76565b9150600a8561265c9190614d0f565b60306126689190614a95565b60f81b8183815181106126a4577f4e487b7100000000000000000000000000000000000000000000000000000000600052603260045260246000fd5b60200101907effffffffffffffffffffffffffffffffffffffffffffffffffffffffffffff1916908160001a905350600a856126e09190614aeb565b9450612638565b8093505050505b919050565b600061270182600001612fdb565b9050919050565b60006127148383612fec565b61276d578260000182908060018154018082558091505060019003906000526020600020016000909190919091505582600001805490508360010160008481526020019081526020016000208190555060019050612772565b600090505b92915050565b60007f7965db0b000000000000000000000000000000000000000000000000000000007bffffffffffffffffffffffffffffffffffffffffffffffffffffffff1916827bffffffffffffffffffffffffffffffffffffffffffffffffffffffff191614806127eb57506127ea8261300f565b5b9050919050565b60007f80ac58cd000000000000000000000000000000000000000000000000000000007bffffffffffffffffffffffffffffffffffffffffffffffffffffffff1916827bffffffffffffffffffffffffffffffffffffffffffffffffffffffff191614806128bd57507f5b5e139f000000000000000000000000000000000000000000000000000000007bffffffffffffffffffffffffffffffffffffffffffffffffffffffff1916827bffffffffffffffffffffffffffffffffffffffffffffffffffffffff1916145b806128cd57506128cc82611a8a565b5b9050919050565b6128df838383613079565b600073ffffffffffffffffffffffffffffffffffffffff168373ffffffffffffffffffffffffffffffffffffffff1614156129225761291d8161307e565b612961565b8173ffffffffffffffffffffffffffffffffffffffff168373ffffffffffffffffffffffffffffffffffffffff16146129605761295f83826130c7565b5b5b600073ffffffffffffffffffffffffffffffffffffffff168273ffffffffffffffffffffffffffffffffffffffff1614156129a45761299f81613234565b6129e3565b8273ffffffffffffffffffffffffffffffffffffffff168273ffffffffffffffffffffffffffffffffffffffff16146129e2576129e18282613377565b5b5b505050565b6060600060028360026129fb9190614b1c565b612a059190614a95565b67ffffffffffffffff811115612a44577f4e487b7100000000000000000000000000000000000000000000000000000000600052604160045260246000fd5b6040519080825280601f01601f191660200182016040528015612a765781602001600182028036833780820191505090505b5090507f300000000000000000000000000000000000000000000000000000000000000081600081518110612ad4577f4e487b7100000000000000000000000000000000000000000000000000000000600052603260045260246000fd5b60200101907effffffffffffffffffffffffffffffffffffffffffffffffffffffffffffff1916908160001a9053507f780000000000000000000000000000000000000000000000000000000000000081600181518110612b5e577f4e487b7100000000000000000000000000000000000000000000000000000000600052603260045260246000fd5b60200101907effffffffffffffffffffffffffffffffffffffffffffffffffffffffffffff1916908160001a90535060006001846002612b9e9190614b1c565b612ba89190614a95565b90505b6001811115612c94577f3031323334353637383961626364656600000000000000000000000000000000600f861660108110612c10577f4e487b7100000000000000000000000000000000000000000000000000000000600052603260045260246000fd5b1a60f81b828281518110612c4d577f4e487b7100000000000000000000000000000000000000000000000000000000600052603260045260246000fd5b60200101907effffffffffffffffffffffffffffffffffffffffffffffffffffffffffffff1916908160001a905350600485901c945080612c8d90614c6a565b9050612bab565b5060008414612cd8576040517f08c379a0000000000000000000000000000000000000000000000000000000008152600401612ccf9061469d565b60405180910390fd5b8091505092915050565b612cec82826115d7565b15612dbf57600080600084815260200190815260200160002060000160008373ffffffffffffffffffffffffffffffffffffffff1673ffffffffffffffffffffffffffffffffffffffff16815260200190815260200160002060006101000a81548160ff021916908315150217905550612d64611b7e565b73ffffffffffffffffffffffffffffffffffffffff168173ffffffffffffffffffffffffffffffffffffffff16837ff6391f5c32d9c69d2a47ea670b442974b53935d1edc7fd64eb21e047a839171b60405160405180910390a45b5050565b6000612deb836000018373ffffffffffffffffffffffffffffffffffffffff1660001b6133f6565b905092915050565b6000826000018281548110612e31577f4e487b7100000000000000000000000000000000000000000000000000000000600052603260045260246000fd5b9060005260206000200154905092915050565b6000612e658473ffffffffffffffffffffffffffffffffffffffff16611967565b15612fce578373ffffffffffffffffffffffffffffffffffffffff1663150b7a02612e8e611b7e565b8786866040518563ffffffff1660e01b8152600401612eb094939291906145f9565b602060405180830381600087803b158015612eca57600080fd5b505af1925050508015612efb57506040513d601f19601f82011682018060405250810190612ef89190613abc565b60015b612f7e573d8060008114612f2b576040519150601f19603f3d011682016040523d82523d6000602084013e612f30565b606091505b50600081511415612f76576040517f08c379a0000000000000000000000000000000000000000000000000000000008152600401612f6d906146dd565b60405180910390fd5b805181602001fd5b63150b7a0260e01b7bffffffffffffffffffffffffffffffffffffffffffffffffffffffff1916817bffffffffffffffffffffffffffffffffffffffffffffffffffffffff191614915050612fd3565b600190505b949350505050565b600081600001805490509050919050565b600080836001016000848152602001908152602001600020541415905092915050565b60007f01ffc9a7000000000000000000000000000000000000000000000000000000007bffffffffffffffffffffffffffffffffffffffffffffffffffffffff1916827bffffffffffffffffffffffffffffffffffffffffffffffffffffffff1916149050919050565b505050565b600a80549050600b600083815260200190815260200160002081905550600a81908060018154018082558091505060019003906000526020600020016000909190919091505550565b600060016130d484611332565b6130de9190614b76565b90506000600960008481526020019081526020016000205490508181146131c3576000600860008673ffffffffffffffffffffffffffffffffffffffff1673ffffffffffffffffffffffffffffffffffffffff168152602001908152602001600020600084815260200190815260200160002054905080600860008773ffffffffffffffffffffffffffffffffffffffff1673ffffffffffffffffffffffffffffffffffffffff168152602001908152602001600020600084815260200190815260200160002081905550816009600083815260200190815260200160002081905550505b6009600084815260200190815260200160002060009055600860008573ffffffffffffffffffffffffffffffffffffffff1673ffffffffffffffffffffffffffffffffffffffff16815260200190815260200160002060008381526020019081526020016000206000905550505050565b60006001600a805490506132489190614b76565b90506000600b60008481526020019081526020016000205490506000600a838154811061329e577f4e487b7100000000000000000000000000000000000000000000000000000000600052603260045260246000fd5b9060005260206000200154905080600a83815481106132e6577f4e487b7100000000000000000000000000000000000000000000000000000000600052603260045260246000fd5b906000526020600020018190555081600b600083815260200190815260200160002081905550600b600085815260200190815260200160002060009055600a80548061335b577f4e487b7100000000000000000000000000000000000000000000000000000000600052603160045260246000fd5b6001900381819060005260206000200160009055905550505050565b600061338283611332565b905081600860008573ffffffffffffffffffffffffffffffffffffffff1673ffffffffffffffffffffffffffffffffffffffff168152602001908152602001600020600083815260200190815260200160002081905550806009600084815260200190815260200160002081905550505050565b600080836001016000848152602001908152602001600020549050600081146135705760006001826134289190614b76565b90506000600186600001805490506134409190614b76565b90508181146134fb576000866000018281548110613487577f4e487b7100000000000000000000000000000000000000000000000000000000600052603260045260246000fd5b90600052602060002001549050808760000184815481106134d1577f4e487b7100000000000000000000000000000000000000000000000000000000600052603260045260246000fd5b90600052602060002001819055508387600101600083815260200190815260200160002081905550505b85600001805480613535577f4e487b7100000000000000000000000000000000000000000000000000000000600052603160045260246000fd5b600190038181906000526020600020016000905590558560010160008681526020019081526020016000206000905560019350505050613576565b60009150505b92915050565b82805461358890614c94565b90600052602060002090601f0160209004810192826135aa57600085556135f1565b82601f106135c357805160ff19168380011785556135f1565b828001600101855582156135f1579182015b828111156135f05782518255916020019190600101906135d5565b5b5090506135fe9190613602565b5090565b5b8082111561361b576000816000905550600101613603565b5090565b600061363261362d846149b9565b614988565b90508281526020810184848401111561364a57600080fd5b613655848285614c28565b509392505050565b600061367061366b846149e9565b614988565b90508281526020810184848401111561368857600080fd5b613693848285614c28565b509392505050565b6000813590506136aa81614e0d565b92915050565b60008083601f8401126136c257600080fd5b8235905067ffffffffffffffff8111156136db57600080fd5b6020830191508360208202830111156136f357600080fd5b9250929050565b60008135905061370981614e24565b92915050565b60008135905061371e81614e3b565b92915050565b60008135905061373381614e52565b92915050565b60008151905061374881614e52565b92915050565b600082601f83011261375f57600080fd5b813561376f84826020860161361f565b91505092915050565b600082601f83011261378957600080fd5b813561379984826020860161365d565b91505092915050565b6000813590506137b181614e69565b92915050565b6000602082840312156137c957600080fd5b60006137d78482850161369b565b91505092915050565b600080604083850312156137f357600080fd5b60006138018582860161369b565b92505060206138128582860161369b565b9150509250929050565b60008060006060848603121561383157600080fd5b600061383f8682870161369b565b93505060206138508682870161369b565b9250506040613861868287016137a2565b9150509250925092565b6000806000806080858703121561388157600080fd5b600061388f8782880161369b565b94505060206138a08782880161369b565b93505060406138b1878288016137a2565b925050606085013567ffffffffffffffff8111156138ce57600080fd5b6138da8782880161374e565b91505092959194509250565b600080604083850312156138f957600080fd5b60006139078582860161369b565b9250506020613918858286016136fa565b9150509250929050565b6000806040838503121561393557600080fd5b60006139438582860161369b565b9250506020613954858286016137a2565b9150509250929050565b60008060006060848603121561397357600080fd5b60006139818682870161369b565b9350506020613992868287016137a2565b92505060406139a3868287016137a2565b9150509250925092565b600080602083850312156139c057600080fd5b600083013567ffffffffffffffff8111156139da57600080fd5b6139e6858286016136b0565b92509250509250929050565b600060208284031215613a0457600080fd5b6000613a128482850161370f565b91505092915050565b60008060408385031215613a2e57600080fd5b6000613a3c8582860161370f565b9250506020613a4d8582860161369b565b9150509250929050565b60008060408385031215613a6a57600080fd5b6000613a788582860161370f565b9250506020613a89858286016137a2565b9150509250929050565b600060208284031215613aa557600080fd5b6000613ab384828501613724565b91505092915050565b600060208284031215613ace57600080fd5b6000613adc84828501613739565b91505092915050565b600060208284031215613af757600080fd5b600082013567ffffffffffffffff811115613b1157600080fd5b613b1d84828501613778565b91505092915050565b600060208284031215613b3857600080fd5b6000613b46848285016137a2565b91505092915050565b60008060408385031215613b6257600080fd5b6000613b70858286016137a2565b9250506020613b81858286016137a2565b9150509250929050565b6000613b978383614557565b60208301905092915050565b613bac81614baa565b82525050565b6000613bbd82614a29565b613bc78185614a57565b9350613bd283614a19565b8060005b83811015613c03578151613bea8882613b8b565b9750613bf583614a4a565b925050600181019050613bd6565b5085935050505092915050565b613c1981614bbc565b82525050565b613c2881614bc8565b82525050565b6000613c3982614a34565b613c438185614a68565b9350613c53818560208601614c37565b613c5c81614dfc565b840191505092915050565b6000613c7282614a3f565b613c7c8185614a79565b9350613c8c818560208601614c37565b613c9581614dfc565b840191505092915050565b6000613cab82614a3f565b613cb58185614a8a565b9350613cc5818560208601614c37565b80840191505092915050565b6000613cde602083614a79565b91507f537472696e67733a20686578206c656e67746820696e73756666696369656e746000830152602082019050919050565b6000613d1e602b83614a79565b91507f455243373231456e756d657261626c653a206f776e657220696e646578206f7560008301527f74206f6620626f756e64730000000000000000000000000000000000000000006020830152604082019050919050565b6000613d84603283614a79565b91507f4552433732313a207472616e7366657220746f206e6f6e20455243373231526560008301527f63656976657220696d706c656d656e74657200000000000000000000000000006020830152604082019050919050565b6000613dea601c83614a79565b91507f4552433732313a20746f6b656e20616c7265616479206d696e746564000000006000830152602082019050919050565b6000613e2a602483614a79565b91507f4552433732313a207472616e7366657220746f20746865207a65726f2061646460008301527f72657373000000000000000000000000000000000000000000000000000000006020830152604082019050919050565b6000613e90601983614a79565b91507f4552433732313a20617070726f766520746f2063616c6c6572000000000000006000830152602082019050919050565b6000613ed0602c83614a79565b91507f4552433732313a206f70657261746f7220717565727920666f72206e6f6e657860008301527f697374656e7420746f6b656e00000000000000000000000000000000000000006020830152604082019050919050565b6000613f36603183614a79565b91507f4352433732314e61747572654175746f49643a206d7573742068617665206d6960008301527f6e74657220726f6c6520746f206d696e740000000000000000000000000000006020830152604082019050919050565b6000613f9c603883614a79565b91507f4552433732313a20617070726f76652063616c6c6572206973206e6f74206f7760008301527f6e6572206e6f7220617070726f76656420666f7220616c6c00000000000000006020830152604082019050919050565b6000614002602a83614a79565b91507f4552433732313a2062616c616e636520717565727920666f7220746865207a6560008301527f726f2061646472657373000000000000000000000000000000000000000000006020830152604082019050919050565b6000614068602983614a79565b91507f4552433732313a206f776e657220717565727920666f72206e6f6e657869737460008301527f656e7420746f6b656e00000000000000000000000000000000000000000000006020830152604082019050919050565b60006140ce603383614a79565b91507f4352433732314e61747572654175746f49643a206d757374206861766520616460008301527f6d696e20726f6c6520746f2073657420555249000000000000000000000000006020830152604082019050919050565b6000614134602083614a79565b91507f4552433732313a206d696e7420746f20746865207a65726f20616464726573736000830152602082019050919050565b6000614174603883614a79565b91507f4352433732314e61747572654175746f49643a20746f6b656e2046656174757260008301527f6520436f646520697320616c72656164792073657420757000000000000000006020830152604082019050919050565b60006141da602c83614a79565b91507f4552433732313a20617070726f76656420717565727920666f72206e6f6e657860008301527f697374656e7420746f6b656e00000000000000000000000000000000000000006020830152604082019050919050565b6000614240600583614a8a565b91507f2e6a736f6e0000000000000000000000000000000000000000000000000000006000830152600582019050919050565b6000614280602983614a79565b91507f4552433732313a207472616e73666572206f6620746f6b656e2074686174206960008301527f73206e6f74206f776e00000000000000000000000000000000000000000000006020830152604082019050919050565b60006142e6602f83614a79565b91507f4552433732314d657461646174613a2055524920717565727920666f72206e6f60008301527f6e6578697374656e7420746f6b656e00000000000000000000000000000000006020830152604082019050919050565b600061434c602183614a79565b91507f4552433732313a20617070726f76616c20746f2063757272656e74206f776e6560008301527f72000000000000000000000000000000000000000000000000000000000000006020830152604082019050919050565b60006143b2603183614a79565b91507f4552433732313a207472616e736665722063616c6c6572206973206e6f74206f60008301527f776e6572206e6f7220617070726f7665640000000000000000000000000000006020830152604082019050919050565b6000614418602c83614a79565b91507f455243373231456e756d657261626c653a20676c6f62616c20696e646578206f60008301527f7574206f6620626f756e647300000000000000000000000000000000000000006020830152604082019050919050565b600061447e601783614a8a565b91507f416363657373436f6e74726f6c3a206163636f756e74200000000000000000006000830152601782019050919050565b60006144be601183614a8a565b91507f206973206d697373696e6720726f6c65200000000000000000000000000000006000830152601182019050919050565b60006144fe602f83614a79565b91507f416363657373436f6e74726f6c3a2063616e206f6e6c792072656e6f756e636560008301527f20726f6c657320666f722073656c6600000000000000000000000000000000006020830152604082019050919050565b61456081614c1e565b82525050565b61456f81614c1e565b82525050565b60006145818285613ca0565b915061458d8284613ca0565b915061459882614233565b91508190509392505050565b60006145af82614471565b91506145bb8285613ca0565b91506145c6826144b1565b91506145d28284613ca0565b91508190509392505050565b60006020820190506145f36000830184613ba3565b92915050565b600060808201905061460e6000830187613ba3565b61461b6020830186613ba3565b6146286040830185614566565b818103606083015261463a8184613c2e565b905095945050505050565b600060208201905061465a6000830184613c10565b92915050565b60006020820190506146756000830184613c1f565b92915050565b600060208201905081810360008301526146958184613c67565b905092915050565b600060208201905081810360008301526146b681613cd1565b9050919050565b600060208201905081810360008301526146d681613d11565b9050919050565b600060208201905081810360008301526146f681613d77565b9050919050565b6000602082019050818103600083015261471681613ddd565b9050919050565b6000602082019050818103600083015261473681613e1d565b9050919050565b6000602082019050818103600083015261475681613e83565b9050919050565b6000602082019050818103600083015261477681613ec3565b9050919050565b6000602082019050818103600083015261479681613f29565b9050919050565b600060208201905081810360008301526147b681613f8f565b9050919050565b600060208201905081810360008301526147d681613ff5565b9050919050565b600060208201905081810360008301526147f68161405b565b9050919050565b60006020820190508181036000830152614816816140c1565b9050919050565b6000602082019050818103600083015261483681614127565b9050919050565b6000602082019050818103600083015261485681614167565b9050919050565b60006020820190508181036000830152614876816141cd565b9050919050565b6000602082019050818103600083015261489681614273565b9050919050565b600060208201905081810360008301526148b6816142d9565b9050919050565b600060208201905081810360008301526148d68161433f565b9050919050565b600060208201905081810360008301526148f6816143a5565b9050919050565b600060208201905081810360008301526149168161440b565b9050919050565b60006020820190508181036000830152614936816144f1565b9050919050565b60006020820190506149526000830184614566565b92915050565b600060408201905061496d6000830185614566565b818103602083015261497f8184613bb2565b90509392505050565b6000604051905081810181811067ffffffffffffffff821117156149af576149ae614dcd565b5b8060405250919050565b600067ffffffffffffffff8211156149d4576149d3614dcd565b5b601f19601f8301169050602081019050919050565b600067ffffffffffffffff821115614a0457614a03614dcd565b5b601f19601f8301169050602081019050919050565b6000819050602082019050919050565b600081519050919050565b600081519050919050565b600081519050919050565b6000602082019050919050565b600082825260208201905092915050565b600082825260208201905092915050565b600082825260208201905092915050565b600081905092915050565b6000614aa082614c1e565b9150614aab83614c1e565b9250827fffffffffffffffffffffffffffffffffffffffffffffffffffffffffffffffff03821115614ae057614adf614d40565b5b828201905092915050565b6000614af682614c1e565b9150614b0183614c1e565b925082614b1157614b10614d6f565b5b828204905092915050565b6000614b2782614c1e565b9150614b3283614c1e565b9250817fffffffffffffffffffffffffffffffffffffffffffffffffffffffffffffffff0483118215151615614b6b57614b6a614d40565b5b828202905092915050565b6000614b8182614c1e565b9150614b8c83614c1e565b925082821015614b9f57614b9e614d40565b5b828203905092915050565b6000614bb582614bfe565b9050919050565b60008115159050919050565b6000819050919050565b60007fffffffff0000000000000000000000000000000000000000000000000000000082169050919050565b600073ffffffffffffffffffffffffffffffffffffffff82169050919050565b6000819050919050565b82818337600083830152505050565b60005b83811015614c55578082015181840152602081019050614c3a565b83811115614c64576000848401525b50505050565b6000614c7582614c1e565b91506000821415614c8957614c88614d40565b5b600182039050919050565b60006002820490506001821680614cac57607f821691505b60208210811415614cc057614cbf614d9e565b5b50919050565b6000614cd182614c1e565b91507fffffffffffffffffffffffffffffffffffffffffffffffffffffffffffffffff821415614d0457614d03614d40565b5b600182019050919050565b6000614d1a82614c1e565b9150614d2583614c1e565b925082614d3557614d34614d6f565b5b828206905092915050565b7f4e487b7100000000000000000000000000000000000000000000000000000000600052601160045260246000fd5b7f4e487b7100000000000000000000000000000000000000000000000000000000600052601260045260246000fd5b7f4e487b7100000000000000000000000000000000000000000000000000000000600052602260045260246000fd5b7f4e487b7100000000000000000000000000000000000000000000000000000000600052604160045260246000fd5b6000601f19601f8301169050919050565b614e1681614baa565b8114614e2157600080fd5b50565b614e2d81614bbc565b8114614e3857600080fd5b50565b614e4481614bc8565b8114614e4f57600080fd5b50565b614e5b81614bd2565b8114614e6657600080fd5b50565b614e7281614c1e565b8114614e7d57600080fd5b5056fea264697066735822122017c6be7f32246e877d4dd0cca6d8861a1fda7e5b499c5b6b40c895bc72edb6a664736f6c63430008000033",
  "immutableReferences": {},
  "source": "// SPDX-License-Identifier: MIT\npragma solidity ^0.8.0;\n\nimport \"@confluxfans/contracts/token/CRC721/extensions/CRC721Enumerable.sol\";\nimport \"@confluxfans/contracts/InternalContracts/InternalContractsHandler.sol\";\nimport \"@openzeppelin/contracts/access/AccessControlEnumerable.sol\";\n\ncontract CRC721NatureAutoId is AccessControlEnumerable, CRC721Enumerable, InternalContractsHandler {\n    using Strings for uint256;\n\n    string private _URI;\n\n    //tokenId => FeatureCode, the Feature code is generally md5 code for resource files such as images or videos.\n    mapping(uint256 => uint256) public tokenFeatureCode;\n\n    // Counter to auto generate token ID.\n    uint256 private _currentTokenId;\n    bytes32 public constant MINTER_ROLE = keccak256(\"MINTER_ROLE\");\n    bytes32 public constant PAUSER_ROLE = keccak256(\"PAUSER_ROLE\");\n\n    constructor(\n        string memory name_,\n        string memory symbol_,\n        string memory uri_\n    ) ERC721(name_, symbol_) {\n        _setupRole(DEFAULT_ADMIN_ROLE, _msgSender());\n\n        _setupRole(MINTER_ROLE, _msgSender());\n        _setupRole(PAUSER_ROLE, _msgSender());\n\n        setURI(uri_);\n\n        _currentTokenId=1;\n    }\n\n    //simple code for add a account as minter\n    function addMinter(address minter_) external {\n        grantRole(MINTER_ROLE, minter_);\n    }\n\n    function removeMinter(address minter_) external {\n        revokeRole(MINTER_ROLE, minter_);\n    }\n\n    /**\n     * @dev Update the URI for all tokens.\n     *\n     * Requirements:\n     *\n     * - the caller must have the `DEFAULT_ADMIN_ROLE`.\n     */\n    function setURI(string memory newuri) public virtual {\n        require(hasRole(DEFAULT_ADMIN_ROLE, _msgSender()), \"CRC721NatureAutoId: must have admin role to set URI\");\n        _URI = newuri;\n    }\n\n    /**\n     * @dev Base URI for computing {tokenURI}. If set, the resulting URI for each\n     * token will be the concatenation of the `baseURI` and the `tokenId`. Empty\n     * by default, can be overriden in child contracts.\n     */\n    function _baseURI() internal view virtual override returns (string memory) {\n        return _URI;\n    }\n\n    /**\n     * @dev See {IERC721Metadata-tokenURI}.\n     */\n    function tokenURI(uint256 tokenId) public view virtual override(ERC721)  returns (string memory) {\n        require(_exists(tokenId), \"ERC721Metadata: URI query for nonexistent token\");\n\n        string memory baseURI = _baseURI();\n        return bytes(baseURI).length > 0 ? string(abi.encodePacked(baseURI, tokenId.toString(), \".json\")) : \"\";\n    }\n\n    /**\n     * @dev Creates a new token for `to`. Its token ID will be automatically\n     * assigned (and available on the emitted {IERC721-Transfer} event), and the token\n     * URI autogenerated based on the base URI passed at construction.\n     *\n     * See {ERC721-_mint}.\n     *\n     * Requirements:\n     *\n     * - the caller must have the `MINTER_ROLE`.\n     */\n    function mint(address to) public virtual {\n        require(hasRole(MINTER_ROLE, _msgSender()), \"CRC721NatureAutoId: must have minter role to mint\");\n        uint256 tokenId = _currentTokenId;\n        _mint(to, tokenId);\n        _currentTokenId = tokenId+1;\n    }\n    function mintTokenID(address to,uint256 tokenId) public virtual {\n        require(hasRole(MINTER_ROLE, _msgSender()), \"CRC721NatureAutoId: must have minter role to mint\");      \n        _mint(to, tokenId);\n    }\n\n    /**\n     * @dev Batch version of mint function\n     */\n    function mintBatch(address to, uint256 amount) public virtual {\n        require(hasRole(MINTER_ROLE, _msgSender()), \"CRC721NatureAutoId: must have minter role to mint\");\n        uint256 tokenId = _currentTokenId;\n        for (uint256 index = 0; index < amount; ++index) _mint(to, tokenId + index);\n        _currentTokenId = tokenId + amount;\n    }\n\n    //chy:Batch airdrop method, giving a group of accounts each airdrop 1 nft with a parsimonious id.\n    function batchAddItemByAddress(address[] calldata _initialOwners) \n        public\n    {\n        require(hasRole(MINTER_ROLE, _msgSender()), \"CRC721NatureAutoId: must have minter role to mint\");\n        uint256 _length = _initialOwners.length;\n        uint256 tokenId = _currentTokenId;\n        for (uint256 i = 0; i < _length; ++i) {\n            _mint(_initialOwners[i], tokenId + i);\n        }\n        _currentTokenId = tokenId + _length;\n    }\n\n    //Optional functionsThe feature code can only be set once for each id, and then it can never be change again\n    function setTokenFeatureCode(uint256 tokenId, uint256 featureCode) public virtual {\n        require(hasRole(MINTER_ROLE, _msgSender()), \"CRC721NatureAutoId: must have minter role to mint\");\n        require(tokenFeatureCode[tokenId] == 0, \"CRC721NatureAutoId: token Feature Code is already set up\");\n        tokenFeatureCode[tokenId] = featureCode;\n    }\n\n    /**\n     * @dev See {IERC165-supportsInterface}.\n     */\n    function supportsInterface(bytes4 interfaceId) public view virtual override(AccessControlEnumerable, ERC721Enumerable) returns (bool) {\n        return AccessControlEnumerable.supportsInterface(interfaceId) || ERC721Enumerable.supportsInterface(interfaceId);\n    }\n}\n",
  "sourcePath": "/d/project/2023/work/ayayiBrand//nft/contracts/CRC721NatureAutoId.sol",
  "compiler": {
    "name": "solc",
    "version": "0.8.0+commit.c7dfd78e.Emscripten.clang"
  },
  "schemaVersion": "3.3.4",
  "updatedAt": "2023-01-10T09:34:37.046Z",
  "devdoc": {
    "kind": "dev",
    "methods": {
      "approve(address,uint256)": {
        "details": "See {IERC721-approve}."
      },
      "balanceOf(address)": {
        "details": "See {IERC721-balanceOf}."
      },
      "getApproved(uint256)": {
        "details": "See {IERC721-getApproved}."
      },
      "getRoleAdmin(bytes32)": {
        "details": "Returns the admin role that controls `role`. See {grantRole} and {revokeRole}. To change a role's admin, use {_setRoleAdmin}."
      },
      "getRoleMember(bytes32,uint256)": {
        "details": "Returns one of the accounts that have `role`. `index` must be a value between 0 and {getRoleMemberCount}, non-inclusive. Role bearers are not sorted in any particular way, and their ordering may change at any point. WARNING: When using {getRoleMember} and {getRoleMemberCount}, make sure you perform all queries on the same block. See the following https://forum.openzeppelin.com/t/iterating-over-elements-on-enumerableset-in-openzeppelin-contracts/2296[forum post] for more information."
      },
      "getRoleMemberCount(bytes32)": {
        "details": "Returns the number of accounts that have `role`. Can be used together with {getRoleMember} to enumerate all bearers of a role."
      },
      "grantRole(bytes32,address)": {
        "details": "Grants `role` to `account`. If `account` had not been already granted `role`, emits a {RoleGranted} event. Requirements: - the caller must have ``role``'s admin role."
      },
      "hasRole(bytes32,address)": {
        "details": "Returns `true` if `account` has been granted `role`."
      },
      "isApprovedForAll(address,address)": {
        "details": "See {IERC721-isApprovedForAll}."
      },
      "mint(address)": {
        "details": "Creates a new token for `to`. Its token ID will be automatically assigned (and available on the emitted {IERC721-Transfer} event), and the token URI autogenerated based on the base URI passed at construction. See {ERC721-_mint}. Requirements: - the caller must have the `MINTER_ROLE`."
      },
      "mintBatch(address,uint256)": {
        "details": "Batch version of mint function"
      },
      "name()": {
        "details": "See {IERC721Metadata-name}."
      },
      "ownerOf(uint256)": {
        "details": "See {IERC721-ownerOf}."
      },
      "renounceRole(bytes32,address)": {
        "details": "Revokes `role` from the calling account. Roles are often managed via {grantRole} and {revokeRole}: this function's purpose is to provide a mechanism for accounts to lose their privileges if they are compromised (such as when a trusted device is misplaced). If the calling account had been revoked `role`, emits a {RoleRevoked} event. Requirements: - the caller must be `account`."
      },
      "revokeRole(bytes32,address)": {
        "details": "Revokes `role` from `account`. If `account` had been granted `role`, emits a {RoleRevoked} event. Requirements: - the caller must have ``role``'s admin role."
      },
      "safeTransferFrom(address,address,uint256)": {
        "details": "See {IERC721-safeTransferFrom}."
      },
      "safeTransferFrom(address,address,uint256,bytes)": {
        "details": "See {IERC721-safeTransferFrom}."
      },
      "setApprovalForAll(address,bool)": {
        "details": "See {IERC721-setApprovalForAll}."
      },
      "setURI(string)": {
        "details": "Update the URI for all tokens. Requirements: - the caller must have the `DEFAULT_ADMIN_ROLE`."
      },
      "supportsInterface(bytes4)": {
        "details": "See {IERC165-supportsInterface}."
      },
      "symbol()": {
        "details": "See {IERC721Metadata-symbol}."
      },
      "tokenByIndex(uint256)": {
        "details": "See {IERC721Enumerable-tokenByIndex}."
      },
      "tokenOfOwnerByIndex(address,uint256)": {
        "details": "See {IERC721Enumerable-tokenOfOwnerByIndex}."
      },
      "tokenURI(uint256)": {
        "details": "See {IERC721Metadata-tokenURI}."
      },
      "tokens(uint256,uint256)": {
        "details": "Returns token IDs in pagination view."
      },
      "tokensOf(address,uint256,uint256)": {
        "details": "Returns token IDs of specified `owner` in pagination view."
      },
      "totalSupply()": {
        "details": "See {IERC721Enumerable-totalSupply}."
      },
      "transferFrom(address,address,uint256)": {
        "details": "See {IERC721-transferFrom}."
      }
    },
    "version": 1
  },
  "userdoc": {
    "kind": "user",
    "methods": {},
    "version": 1
  }
}